{
  "address": "0x3AF32b04C5c7dC0e4ad07F2Cc5bA612E3265BBcF",
  "abi": [
    {
      "inputs": [],
      "stateMutability": "nonpayable",
      "type": "constructor"
    },
    {
      "inputs": [
        {
          "internalType": "address",
          "name": "newMember",
          "type": "address"
        }
      ],
      "name": "addMember",
      "outputs": [],
      "stateMutability": "nonpayable",
      "type": "function"
    },
    {
      "inputs": [
        {
          "internalType": "uint256",
          "name": "lessNumber",
          "type": "uint256"
        }
      ],
      "name": "decreaseMembers",
      "outputs": [],
      "stateMutability": "nonpayable",
      "type": "function"
    },
    {
      "inputs": [],
      "name": "getMaxMembers",
      "outputs": [
        {
          "internalType": "uint256",
          "name": "",
          "type": "uint256"
        }
      ],
      "stateMutability": "view",
      "type": "function"
    },
    {
      "inputs": [
        {
          "internalType": "uint256",
          "name": "moreNumber",
          "type": "uint256"
        }
      ],
      "name": "increaseMembers",
      "outputs": [],
      "stateMutability": "nonpayable",
      "type": "function"
    }
  ],
  "transactionHash": "0x0ec4927eb23b5037e94353b8d8151c75a2896b542c67d4fcef08fa7426c1a1ff",
  "args": [],
  "numDeployments": 2,
  "solcInputHash": "602278b639825d7d764fa8d023696e38",
  "bytecode": "0x608060405234801561001057600080fd5b5033600160006101000a81548173ffffffffffffffffffffffffffffffffffffffff021916908373ffffffffffffffffffffffffffffffffffffffff160217905550600a60008190555061067e806100696000396000f3fe608060405234801561001057600080fd5b506004361061004c5760003560e01c80637584232c14610051578063835f5b4e1461006f578063c9c5a7f91461008b578063ca6d56dc146100a7575b600080fd5b6100596100c3565b604051610066919061038a565b60405180910390f35b610089600480360381019061008491906103d6565b6100cc565b005b6100a560048036038101906100a091906103d6565b61014e565b005b6100c160048036038101906100bc9190610461565b6101d0565b005b60008054905090565b600160009054906101000a900473ffffffffffffffffffffffffffffffffffffffff1673ffffffffffffffffffffffffffffffffffffffff163373ffffffffffffffffffffffffffffffffffffffff161461012657600080fd5b600081116101375761013661048e565b5b8060005461014591906104ec565b60008190555050565b600160009054906101000a900473ffffffffffffffffffffffffffffffffffffffff1673ffffffffffffffffffffffffffffffffffffffff163373ffffffffffffffffffffffffffffffffffffffff16146101a857600080fd5b600081116101b9576101b861048e565b5b806000546101c79190610520565b60008190555050565b600160009054906101000a900473ffffffffffffffffffffffffffffffffffffffff1673ffffffffffffffffffffffffffffffffffffffff163373ffffffffffffffffffffffffffffffffffffffff161461022a57600080fd5b6000805b6002805490508110156102c8576002818154811061024f5761024e610554565b5b9060005260206000200160009054906101000a900473ffffffffffffffffffffffffffffffffffffffff1673ffffffffffffffffffffffffffffffffffffffff168373ffffffffffffffffffffffffffffffffffffffff16036102b557600191506102c8565b80806102c090610583565b91505061022e565b50801561030a576040517f08c379a000000000000000000000000000000000000000000000000000000000815260040161030190610628565b60405180910390fd5b6002829080600181540180825580915050600190039060005260206000200160009091909190916101000a81548173ffffffffffffffffffffffffffffffffffffffff021916908373ffffffffffffffffffffffffffffffffffffffff1602179055505050565b6000819050919050565b61038481610371565b82525050565b600060208201905061039f600083018461037b565b92915050565b600080fd5b6103b381610371565b81146103be57600080fd5b50565b6000813590506103d0816103aa565b92915050565b6000602082840312156103ec576103eb6103a5565b5b60006103fa848285016103c1565b91505092915050565b600073ffffffffffffffffffffffffffffffffffffffff82169050919050565b600061042e82610403565b9050919050565b61043e81610423565b811461044957600080fd5b50565b60008135905061045b81610435565b92915050565b600060208284031215610477576104766103a5565b5b60006104858482850161044c565b91505092915050565b7f4e487b7100000000000000000000000000000000000000000000000000000000600052600160045260246000fd5b7f4e487b7100000000000000000000000000000000000000000000000000000000600052601160045260246000fd5b60006104f782610371565b915061050283610371565b925082820190508082111561051a576105196104bd565b5b92915050565b600061052b82610371565b915061053683610371565b925082820390508181111561054e5761054d6104bd565b5b92915050565b7f4e487b7100000000000000000000000000000000000000000000000000000000600052603260045260246000fd5b600061058e82610371565b91507fffffffffffffffffffffffffffffffffffffffffffffffffffffffffffffffff82036105c0576105bf6104bd565b5b600182019050919050565b600082825260208201905092915050565b7f4d656d62657220616c72656164792065786973742e0000000000000000000000600082015250565b60006106126015836105cb565b915061061d826105dc565b602082019050919050565b6000602082019050818103600083015261064181610605565b905091905056fea26469706673582212208356c839b0dceacbb0a6b47008e03f73c8c00530c444a6351af134f273765a9364736f6c63430008110033",
  "devdoc": {
    "kind": "dev",
    "methods": {},
    "version": 1
  },
  "userdoc": {
    "kind": "user",
    "methods": {},
    "version": 1
  },
  "storageLayout": {
    "storage": [
      {
        "astId": 3,
        "contract": "contracts/MemberShipValidation.sol:MembershipValidation",
        "label": "s_maxMembers",
        "offset": 0,
        "slot": "0",
        "type": "t_uint256"
      },
      {
        "astId": 5,
        "contract": "contracts/MemberShipValidation.sol:MembershipValidation",
        "label": "s_owner",
        "offset": 0,
        "slot": "1",
        "type": "t_address"
      },
      {
        "astId": 8,
        "contract": "contracts/MemberShipValidation.sol:MembershipValidation",
        "label": "members",
        "offset": 0,
        "slot": "2",
        "type": "t_array(t_address)dyn_storage"
      }
    ],
    "types": {
      "t_address": {
        "encoding": "inplace",
        "label": "address",
        "numberOfBytes": "20"
      },
      "t_array(t_address)dyn_storage": {
        "base": "t_address",
        "encoding": "dynamic_array",
        "label": "address[]",
        "numberOfBytes": "32"
      },
      "t_uint256": {
        "encoding": "inplace",
        "label": "uint256",
        "numberOfBytes": "32"
      }
    }
  }
}