{
  "address": "0x00CFF70fBfbf9977a877a59cC3fEa86A4e8a13EA",
  "abi": [
    {
      "inputs": [],
      "stateMutability": "nonpayable",
      "type": "constructor"
    },
    {
      "inputs": [
        {
          "internalType": "address",
          "name": "newMember",
          "type": "address"
        }
      ],
      "name": "addMember",
      "outputs": [],
      "stateMutability": "nonpayable",
      "type": "function"
    },
    {
      "inputs": [
        {
          "internalType": "uint256",
          "name": "lessNumber",
          "type": "uint256"
        }
      ],
      "name": "decreaseMembers",
      "outputs": [],
      "stateMutability": "nonpayable",
      "type": "function"
    },
    {
      "inputs": [
        {
          "internalType": "uint256",
          "name": "moreNumber",
          "type": "uint256"
        }
      ],
      "name": "increaseMembers",
      "outputs": [],
      "stateMutability": "nonpayable",
      "type": "function"
    }
  ],
  "transactionHash": "0x07bdac1910c681df7c5f90aee979060326cccd7fc8e188a46a013edd02384f5c",
  "args": [],
  "numDeployments": 1,
  "solcInputHash": "f2cb736e4d87dc7f4dc08d52d1694066",
  "bytecode": "0x608060405234801561001057600080fd5b5033600160006101000a81548173ffffffffffffffffffffffffffffffffffffffff021916908373ffffffffffffffffffffffffffffffffffffffff160217905550600a600081905550610622806100696000396000f3fe608060405234801561001057600080fd5b50600436106100415760003560e01c8063835f5b4e14610046578063c9c5a7f914610062578063ca6d56dc1461007e575b600080fd5b610060600480360381019061005b919061037a565b61009a565b005b61007c6004803603810190610077919061037a565b61011c565b005b61009860048036038101906100939190610405565b61019e565b005b600160009054906101000a900473ffffffffffffffffffffffffffffffffffffffff1673ffffffffffffffffffffffffffffffffffffffff163373ffffffffffffffffffffffffffffffffffffffff16146100f457600080fd5b6000811161010557610104610432565b5b806000546101139190610490565b60008190555050565b600160009054906101000a900473ffffffffffffffffffffffffffffffffffffffff1673ffffffffffffffffffffffffffffffffffffffff163373ffffffffffffffffffffffffffffffffffffffff161461017657600080fd5b6000811161018757610186610432565b5b8060005461019591906104c4565b60008190555050565b600160009054906101000a900473ffffffffffffffffffffffffffffffffffffffff1673ffffffffffffffffffffffffffffffffffffffff163373ffffffffffffffffffffffffffffffffffffffff16146101f857600080fd5b6000805b600280549050811015610296576002818154811061021d5761021c6104f8565b5b9060005260206000200160009054906101000a900473ffffffffffffffffffffffffffffffffffffffff1673ffffffffffffffffffffffffffffffffffffffff168373ffffffffffffffffffffffffffffffffffffffff16036102835760019150610296565b808061028e90610527565b9150506101fc565b5080156102d8576040517f08c379a00000000000000000000000000000000000000000000000000000000081526004016102cf906105cc565b60405180910390fd5b6002829080600181540180825580915050600190039060005260206000200160009091909190916101000a81548173ffffffffffffffffffffffffffffffffffffffff021916908373ffffffffffffffffffffffffffffffffffffffff1602179055505050565b600080fd5b6000819050919050565b61035781610344565b811461036257600080fd5b50565b6000813590506103748161034e565b92915050565b6000602082840312156103905761038f61033f565b5b600061039e84828501610365565b91505092915050565b600073ffffffffffffffffffffffffffffffffffffffff82169050919050565b60006103d2826103a7565b9050919050565b6103e2816103c7565b81146103ed57600080fd5b50565b6000813590506103ff816103d9565b92915050565b60006020828403121561041b5761041a61033f565b5b6000610429848285016103f0565b91505092915050565b7f4e487b7100000000000000000000000000000000000000000000000000000000600052600160045260246000fd5b7f4e487b7100000000000000000000000000000000000000000000000000000000600052601160045260246000fd5b600061049b82610344565b91506104a683610344565b92508282019050808211156104be576104bd610461565b5b92915050565b60006104cf82610344565b91506104da83610344565b92508282039050818111156104f2576104f1610461565b5b92915050565b7f4e487b7100000000000000000000000000000000000000000000000000000000600052603260045260246000fd5b600061053282610344565b91507fffffffffffffffffffffffffffffffffffffffffffffffffffffffffffffffff820361056457610563610461565b5b600182019050919050565b600082825260208201905092915050565b7f4d656d62657220616c72656164792065786973742e0000000000000000000000600082015250565b60006105b660158361056f565b91506105c182610580565b602082019050919050565b600060208201905081810360008301526105e5816105a9565b905091905056fea264697066735822122007a02735d02d018adf7382fc8911a31ec5e1c7203cd7994fe3cb5423e39b9bf364736f6c63430008110033",
  "devdoc": {
    "kind": "dev",
    "methods": {},
    "version": 1
  },
  "userdoc": {
    "kind": "user",
    "methods": {},
    "version": 1
  },
  "storageLayout": {
    "storage": [
      {
        "astId": 82,
        "contract": "contracts/MemberShipValidation.sol:MembershipValidation",
        "label": "s_maxMembers",
        "offset": 0,
        "slot": "0",
        "type": "t_uint256"
      },
      {
        "astId": 84,
        "contract": "contracts/MemberShipValidation.sol:MembershipValidation",
        "label": "s_owner",
        "offset": 0,
        "slot": "1",
        "type": "t_address"
      },
      {
        "astId": 87,
        "contract": "contracts/MemberShipValidation.sol:MembershipValidation",
        "label": "members",
        "offset": 0,
        "slot": "2",
        "type": "t_array(t_address)dyn_storage"
      }
    ],
    "types": {
      "t_address": {
        "encoding": "inplace",
        "label": "address",
        "numberOfBytes": "20"
      },
      "t_array(t_address)dyn_storage": {
        "base": "t_address",
        "encoding": "dynamic_array",
        "label": "address[]",
        "numberOfBytes": "32"
      },
      "t_uint256": {
        "encoding": "inplace",
        "label": "uint256",
        "numberOfBytes": "32"
      }
    }
  }
}