{
  "address": "0xABD2888971be81Ca62dF56F57d7e826D402d78AB",
  "abi": [
    {
      "inputs": [],
      "stateMutability": "nonpayable",
      "type": "constructor"
    },
    {
      "inputs": [],
      "name": "availableSpots",
      "outputs": [
        {
          "internalType": "uint256",
          "name": "",
          "type": "uint256"
        }
      ],
      "stateMutability": "view",
      "type": "function"
    },
    {
      "inputs": [],
      "name": "getAllParticipants",
      "outputs": [
        {
          "components": [
            {
              "internalType": "uint256",
              "name": "dateOfJoining",
              "type": "uint256"
            },
            {
              "internalType": "string",
              "name": "name",
              "type": "string"
            },
            {
              "internalType": "string",
              "name": "summary",
              "type": "string"
            },
            {
              "internalType": "enum CohortProgram.Level",
              "name": "knowledgeLevel",
              "type": "uint8"
            },
            {
              "internalType": "uint256",
              "name": "rollNo",
              "type": "uint256"
            }
          ],
          "internalType": "struct CohortProgram.Participant[]",
          "name": "",
          "type": "tuple[]"
        }
      ],
      "stateMutability": "view",
      "type": "function"
    },
    {
      "inputs": [],
      "name": "getParticipant",
      "outputs": [
        {
          "components": [
            {
              "internalType": "uint256",
              "name": "dateOfJoining",
              "type": "uint256"
            },
            {
              "internalType": "string",
              "name": "name",
              "type": "string"
            },
            {
              "internalType": "string",
              "name": "summary",
              "type": "string"
            },
            {
              "internalType": "enum CohortProgram.Level",
              "name": "knowledgeLevel",
              "type": "uint8"
            },
            {
              "internalType": "uint256",
              "name": "rollNo",
              "type": "uint256"
            }
          ],
          "internalType": "struct CohortProgram.Participant",
          "name": "",
          "type": "tuple"
        }
      ],
      "stateMutability": "view",
      "type": "function"
    },
    {
      "inputs": [
        {
          "internalType": "string",
          "name": "name",
          "type": "string"
        },
        {
          "internalType": "string",
          "name": "summary",
          "type": "string"
        },
        {
          "internalType": "enum CohortProgram.Level",
          "name": "knowLevel",
          "type": "uint8"
        }
      ],
      "name": "register",
      "outputs": [
        {
          "internalType": "uint256",
          "name": "",
          "type": "uint256"
        }
      ],
      "stateMutability": "nonpayable",
      "type": "function"
    }
  ],
  "transactionHash": "0xa17f5c5c539df0dd415f5ed8656960cf1a781e6c1ccd4c812da777770eb59fc4",
  "args": [],
  "numDeployments": 1,
  "solcInputHash": "d53262bb8823b0b2d97c13fc10be7aec",
  "bytecode": "0x608060405234801561001057600080fd5b50601e600081905550611032806100286000396000f3fe608060405234801561001057600080fd5b506004361061004c5760003560e01c806306e904381461005157806314b878621461006f578063195ec9ee1461008d578063b3f90e0a146100ab575b600080fd5b6100596100db565b60405161006691906106e0565b60405180910390f35b6100776100f2565b604051610084919061088e565b60405180910390f35b6100956102bc565b6040516100a291906109ef565b60405180910390f35b6100c560048036038101906100c09190610b7f565b61048e565b6040516100d291906106e0565b60405180910390f35b60006001546000546100ed9190610c39565b905090565b6100fa610686565b600260003373ffffffffffffffffffffffffffffffffffffffff1673ffffffffffffffffffffffffffffffffffffffff1681526020019081526020016000206040518060a00160405290816000820154815260200160018201805461015e90610c9c565b80601f016020809104026020016040519081016040528092919081815260200182805461018a90610c9c565b80156101d75780601f106101ac576101008083540402835291602001916101d7565b820191906000526020600020905b8154815290600101906020018083116101ba57829003601f168201915b505050505081526020016002820180546101f090610c9c565b80601f016020809104026020016040519081016040528092919081815260200182805461021c90610c9c565b80156102695780601f1061023e57610100808354040283529160200191610269565b820191906000526020600020905b81548152906001019060200180831161024c57829003601f168201915b505050505081526020016003820160009054906101000a900460ff1660028111156102975761029661079a565b5b60028111156102a9576102a861079a565b5b8152602001600482015481525050905090565b60606003805480602002602001604051908101604052809291908181526020016000905b8282101561048557838290600052602060002090600502016040518060a00160405290816000820154815260200160018201805461031d90610c9c565b80601f016020809104026020016040519081016040528092919081815260200182805461034990610c9c565b80156103965780601f1061036b57610100808354040283529160200191610396565b820191906000526020600020905b81548152906001019060200180831161037957829003601f168201915b505050505081526020016002820180546103af90610c9c565b80601f01602080910402602001604051908101604052809291908181526020018280546103db90610c9c565b80156104285780601f106103fd57610100808354040283529160200191610428565b820191906000526020600020905b81548152906001019060200180831161040b57829003601f168201915b505050505081526020016003820160009054906101000a900460ff1660028111156104565761045561079a565b5b60028111156104685761046761079a565b5b8152602001600482015481525050815260200190600101906102e0565b50505050905090565b60008054600154106104d5576040517f08c379a00000000000000000000000000000000000000000000000000000000081526004016104cc90610d2a565b60405180910390fd5b600180546104e39190610d4a565b60018190555060006040518060a0016040528042815260200186815260200185815260200184600281111561051b5761051a61079a565b5b8152602001600154815250905080600260003373ffffffffffffffffffffffffffffffffffffffff1673ffffffffffffffffffffffffffffffffffffffff1681526020019081526020016000206000820151816000015560208201518160010190816105879190610f2a565b50604082015181600201908161059d9190610f2a565b5060608201518160030160006101000a81548160ff021916908360028111156105c9576105c861079a565b5b02179055506080820151816004015590505060038190806001815401808255809150506001900390600052602060002090600502016000909190919091506000820151816000015560208201518160010190816106269190610f2a565b50604082015181600201908161063c9190610f2a565b5060608201518160030160006101000a81548160ff021916908360028111156106685761066761079a565b5b02179055506080820151816004015550506001549150509392505050565b6040518060a00160405280600081526020016060815260200160608152602001600060028111156106ba576106b961079a565b5b8152602001600081525090565b6000819050919050565b6106da816106c7565b82525050565b60006020820190506106f560008301846106d1565b92915050565b610704816106c7565b82525050565b600081519050919050565b600082825260208201905092915050565b60005b83811015610744578082015181840152602081019050610729565b60008484015250505050565b6000601f19601f8301169050919050565b600061076c8261070a565b6107768185610715565b9350610786818560208601610726565b61078f81610750565b840191505092915050565b7f4e487b7100000000000000000000000000000000000000000000000000000000600052602160045260246000fd5b600381106107da576107d961079a565b5b50565b60008190506107eb826107c9565b919050565b60006107fb826107dd565b9050919050565b61080b816107f0565b82525050565b600060a08301600083015161082960008601826106fb565b50602083015184820360208601526108418282610761565b9150506040830151848203604086015261085b8282610761565b91505060608301516108706060860182610802565b50608083015161088360808601826106fb565b508091505092915050565b600060208201905081810360008301526108a88184610811565b905092915050565b600081519050919050565b600082825260208201905092915050565b6000819050602082019050919050565b600060a0830160008301516108f460008601826106fb565b506020830151848203602086015261090c8282610761565b915050604083015184820360408601526109268282610761565b915050606083015161093b6060860182610802565b50608083015161094e60808601826106fb565b508091505092915050565b600061096583836108dc565b905092915050565b6000602082019050919050565b6000610985826108b0565b61098f81856108bb565b9350836020820285016109a1856108cc565b8060005b858110156109dd57848403895281516109be8582610959565b94506109c98361096d565b925060208a019950506001810190506109a5565b50829750879550505050505092915050565b60006020820190508181036000830152610a09818461097a565b905092915050565b6000604051905090565b600080fd5b600080fd5b600080fd5b600080fd5b7f4e487b7100000000000000000000000000000000000000000000000000000000600052604160045260246000fd5b610a6782610750565b810181811067ffffffffffffffff82111715610a8657610a85610a2f565b5b80604052505050565b6000610a99610a11565b9050610aa58282610a5e565b919050565b600067ffffffffffffffff821115610ac557610ac4610a2f565b5b610ace82610750565b9050602081019050919050565b82818337600083830152505050565b6000610afd610af884610aaa565b610a8f565b905082815260208101848484011115610b1957610b18610a2a565b5b610b24848285610adb565b509392505050565b600082601f830112610b4157610b40610a25565b5b8135610b51848260208601610aea565b91505092915050565b60038110610b6757600080fd5b50565b600081359050610b7981610b5a565b92915050565b600080600060608486031215610b9857610b97610a1b565b5b600084013567ffffffffffffffff811115610bb657610bb5610a20565b5b610bc286828701610b2c565b935050602084013567ffffffffffffffff811115610be357610be2610a20565b5b610bef86828701610b2c565b9250506040610c0086828701610b6a565b9150509250925092565b7f4e487b7100000000000000000000000000000000000000000000000000000000600052601160045260246000fd5b6000610c44826106c7565b9150610c4f836106c7565b9250828203905081811115610c6757610c66610c0a565b5b92915050565b7f4e487b7100000000000000000000000000000000000000000000000000000000600052602260045260246000fd5b60006002820490506001821680610cb457607f821691505b602082108103610cc757610cc6610c6d565b5b50919050565b600082825260208201905092915050565b7f526567697374726174696f6e20697320636c6f73656400000000000000000000600082015250565b6000610d14601683610ccd565b9150610d1f82610cde565b602082019050919050565b60006020820190508181036000830152610d4381610d07565b9050919050565b6000610d55826106c7565b9150610d60836106c7565b9250828201905080821115610d7857610d77610c0a565b5b92915050565b60008190508160005260206000209050919050565b60006020601f8301049050919050565b600082821b905092915050565b600060088302610de07fffffffffffffffffffffffffffffffffffffffffffffffffffffffffffffffff82610da3565b610dea8683610da3565b95508019841693508086168417925050509392505050565b6000819050919050565b6000610e27610e22610e1d846106c7565b610e02565b6106c7565b9050919050565b6000819050919050565b610e4183610e0c565b610e55610e4d82610e2e565b848454610db0565b825550505050565b600090565b610e6a610e5d565b610e75818484610e38565b505050565b5b81811015610e9957610e8e600082610e62565b600181019050610e7b565b5050565b601f821115610ede57610eaf81610d7e565b610eb884610d93565b81016020851015610ec7578190505b610edb610ed385610d93565b830182610e7a565b50505b505050565b600082821c905092915050565b6000610f0160001984600802610ee3565b1980831691505092915050565b6000610f1a8383610ef0565b9150826002028217905092915050565b610f338261070a565b67ffffffffffffffff811115610f4c57610f4b610a2f565b5b610f568254610c9c565b610f61828285610e9d565b600060209050601f831160018114610f945760008415610f82578287015190505b610f8c8582610f0e565b865550610ff4565b601f198416610fa286610d7e565b60005b82811015610fca57848901518255600182019150602085019450602081019050610fa5565b86831015610fe75784890151610fe3601f891682610ef0565b8355505b6001600288020188555050505b50505050505056fea26469706673582212209224f34e3f9714a4234ea178a41a4be5b5ba64250df113344efdb45d8fe7fd6164736f6c63430008110033",
  "devdoc": {
    "kind": "dev",
    "methods": {},
    "version": 1
  },
  "userdoc": {
    "kind": "user",
    "methods": {},
    "version": 1
  },
  "storageLayout": {
    "storage": [
      {
        "astId": 3,
        "contract": "contracts/CohortProgram.sol:CohortProgram",
        "label": "s_maxParticipants",
        "offset": 0,
        "slot": "0",
        "type": "t_uint256"
      },
      {
        "astId": 5,
        "contract": "contracts/CohortProgram.sol:CohortProgram",
        "label": "s_NoOfParticipants",
        "offset": 0,
        "slot": "1",
        "type": "t_uint256"
      },
      {
        "astId": 26,
        "contract": "contracts/CohortProgram.sol:CohortProgram",
        "label": "s_participants",
        "offset": 0,
        "slot": "2",
        "type": "t_mapping(t_address,t_struct(Participant)21_storage)"
      },
      {
        "astId": 30,
        "contract": "contracts/CohortProgram.sol:CohortProgram",
        "label": "s_allParticipants",
        "offset": 0,
        "slot": "3",
        "type": "t_array(t_struct(Participant)21_storage)dyn_storage"
      }
    ],
    "types": {
      "t_address": {
        "encoding": "inplace",
        "label": "address",
        "numberOfBytes": "20"
      },
      "t_array(t_struct(Participant)21_storage)dyn_storage": {
        "base": "t_struct(Participant)21_storage",
        "encoding": "dynamic_array",
        "label": "struct CohortProgram.Participant[]",
        "numberOfBytes": "32"
      },
      "t_enum(Level)9": {
        "encoding": "inplace",
        "label": "enum CohortProgram.Level",
        "numberOfBytes": "1"
      },
      "t_mapping(t_address,t_struct(Participant)21_storage)": {
        "encoding": "mapping",
        "key": "t_address",
        "label": "mapping(address => struct CohortProgram.Participant)",
        "numberOfBytes": "32",
        "value": "t_struct(Participant)21_storage"
      },
      "t_string_storage": {
        "encoding": "bytes",
        "label": "string",
        "numberOfBytes": "32"
      },
      "t_struct(Participant)21_storage": {
        "encoding": "inplace",
        "label": "struct CohortProgram.Participant",
        "members": [
          {
            "astId": 11,
            "contract": "contracts/CohortProgram.sol:CohortProgram",
            "label": "dateOfJoining",
            "offset": 0,
            "slot": "0",
            "type": "t_uint256"
          },
          {
            "astId": 13,
            "contract": "contracts/CohortProgram.sol:CohortProgram",
            "label": "name",
            "offset": 0,
            "slot": "1",
            "type": "t_string_storage"
          },
          {
            "astId": 15,
            "contract": "contracts/CohortProgram.sol:CohortProgram",
            "label": "summary",
            "offset": 0,
            "slot": "2",
            "type": "t_string_storage"
          },
          {
            "astId": 18,
            "contract": "contracts/CohortProgram.sol:CohortProgram",
            "label": "knowledgeLevel",
            "offset": 0,
            "slot": "3",
            "type": "t_enum(Level)9"
          },
          {
            "astId": 20,
            "contract": "contracts/CohortProgram.sol:CohortProgram",
            "label": "rollNo",
            "offset": 0,
            "slot": "4",
            "type": "t_uint256"
          }
        ],
        "numberOfBytes": "160"
      },
      "t_uint256": {
        "encoding": "inplace",
        "label": "uint256",
        "numberOfBytes": "32"
      }
    }
  }
}